:020000040800F2
:1000000000500020B10F0008011000080110000886
:100010000110000801100008011000080000000095
:1000200000000000000000000000000001100008B7
:10003000011000080000000001100008410B00083A
:10004000011000080110000801100008011000084C
:100050000110000801100008A9050008CD050008DE
:10006000F10500081506000839060008E504000837
:10007000010500081D0500083905000855050008A0
:10008000710500088D050008011000080110000826
:100090000110000801100008011000085D060008AA
:1000A00001100008E10D000801100008011000080F
:1000B00001100008011000080110000801100008DC
:1000C00001100008011000080110000801100008CC
:1000D000011000080D0E0008390E0008650E00081A
:1000E000CD06000801100008000000000110000803
:1000F000011000080110000801100008011000089C
:10010000011000080110000801100008011000088B
:10011000011000080110000801100008011000087B
:10012000011000080110000801100008011000086B
:1001300010B5054C237833B9044B13B10448AFF321
:1001400000800123237010BD2C000020000000005F
:100150004C10000808B5034B1BB103490348AFF32B
:10016000008008BD00000000300000204C10000896
:1001700053B94AB9002908BF00281CBF4FF0FF310E
:100180004FF0FF3000F072B9ADF1080C6DE904CE0C
:1001900000F006F8DDF804E0DDE9022304B0704762
:1001A0002DE9F047089E0D4604468E46002B4CD1A3
:1001B0008A42944667D9B2FA82F353B102FA03FC39
:1001C000C3F1200201FA03FE20FA02F242EA0E0E07
:1001D0009C404FEA1C47BEFBF7F11FFA8CF507FB6A
:1001E00011EE01FB05F0220C42EA0E4290420AD9C0
:1001F0001CEB020201F1FF3E80F01981904240F2B7
:10020000168102396244121AB2FBF7F007FB102282
:1002100000FB05F5A4B244EA0244A5420AD91CEB4E
:10022000040400F1FF3280F00481A54240F2018114
:100230006444023840EA01400021641B1EB1DC40E6
:100240000023C6E90043BDE8F0878B4208D9002EA1
:1002500000F0EA800021C6E900050846BDE8F08705
:10026000B3FA83F1002948D1AB4202D3824200F2B3
:10027000F880841A65EB030201209646002EE2D036
:10028000C6E9004EDFE702B9FFDEB2FA82F3002BC7
:1002900040F08E80881A0121170C1FFA82FEB0FBF5
:1002A000F7F507FB1500220C42EA00420EFB05F0B1
:1002B000904208D91CEB020205F1FF3802D29042AD
:1002C00000F2CC804546121AB2FBF7F007FB102271
:1002D0000EFB00FEA4B244EA0244A64508D91CEB7A
:1002E000040400F1FF3202D2A64500F2B4801046A9
:1002F000A4EB0E0440EA0540A0E7C1F120078B40C3
:1003000022FA07FC4CEA030C25FA07FA4FEA1C49CB
:10031000BAFBF9F88D4020FA07F309FB18AA1FFA77
:100320008CFE2B4300FA01F508FB0EF01C0C44EA8E
:100330000A44A04202FA01F20BD91CEB040408F1B2
:10034000FF3A80F08680A04240F28380A8F1020844
:100350006444241A98B2B4FBF9F309FB134403FB79
:100360000EFE40EA0444A64508D91CEB040403F140
:10037000FF306AD2A64568D9023B644443EA08408C
:10038000A0FB0293A4EB0E049C42C8469E4654D3A5
:1003900051D0002E67D0B5EB080364EB0E04CB40C0
:1003A00004FA07F71F43CC40C6E9007400214AE76E
:1003B00002FA03FCC3F12000C1409D4024FA00F082
:1003C0004FEA1C472843B1FBF7F507FB15111FFA4D
:1003D0008CFE020C42EA014205FB0EF1914204FA46
:1003E00003F408D91CEB020205F1FF382FD2914229
:1003F0002DD9023D6244521AB2FBF7F107FB1122DC
:1004000080B240EA024001FB0EF2824208D91CEBA6
:10041000000001F1FF3816D2824214D9023960443B
:10042000801A41EA05413AE7314630460BE771460A
:10043000E9E61046FEE64D45ABD2B9EB020863EBA8
:100440000C0E0138A5E74146EAE7034696E7454624
:10045000D1E7D0467DE76444023849E7023D624473
:1004600031E708460AE73146EDE600BF704700BFB6
:1004700080B582B000AF0346FB71FB79184600F0EF
:10048000B1FBFB793221184600F044FCFB790021D6
:10049000184600F005F800BF0837BD4680BD0000D3
:1004A00080B584B000AF03460A46FB711346BB71AA
:1004B000BB79FB60FB68642202FB03F3084AA2FBE2
:1004C00003235B089BB203F2CF737B817A89FB79AC
:1004D0001146184600F05EFC00BF1037BD4680BDD7
:1004E000398EE33880B500AF044B1B68002B02D077
:1004F000024B1B68984700BF80BD00BF480000202A
:1005000080B500AF044B5B68002B02D0024B5B68E8
:10051000984700BF80BD00BF4800002080B500AFF5
:10052000044B9B68002B02D0024B9B68984700BF8E
:1005300080BD00BF4800002080B500AF044BDB68E1
:10054000002B02D0024BDB68984700BF80BD00BF84
:100550004800002080B500AF044B1B69002B02D07F
:10056000024B1B69984700BF80BD00BF48000020B8
:1005700080B500AF044B5B69002B02D0024B5B6976
:10058000984700BF80BD00BF4800002080B500AF85
:10059000044B9B69002B02D0024B9B69984700BF1C
:1005A00080BD00BF4800002080B500AF054B012290
:1005B0005A61054B1B68002B02D0034B1B68984700
:1005C00000BF80BD000401406400002080B500AF82
:1005D000054B02225A61054B5B68002B02D0034B8E
:1005E0005B68984700BF80BD0004014064000020A4
:1005F00080B500AF054B04225A61054B9B68002B68
:1006000002D0034B9B68984700BF80BD00040140A7
:100610006400002080B500AF054B08225A61054BED
:10062000DB68002B02D0034BDB68984700BF80BD1E
:10063000000401406400002080B500AF054B10228B
:100640005A61054B1B69002B02D0034B1B6998476D
:1006500000BF80BD000401406400002080B582B06E
:1006600000AF0523FB7124E0164B5A69FB7922FA8F
:1006700003F303F00103012B18D1124B1A68FB7925
:1006800022FA03F303F00103012B0FD1FB790122BE
:100690009A400C4B5A61FB790B4A52F82330002BDD
:1006A00004D0FB79084A52F823309847FB7901338C
:1006B000FB71FB79092BD7D900BF00BF0837BD46B6
:1006C00080BD00BF000401406400002080B582B0FE
:1006D00000AF0A23FB7120E0144B5A69FB7922FA20
:1006E00003F303F00103012B14D1104B5B69FA797A
:1006F000012101FA02F211460C4A0B435361FB79C6
:100700000B4A52F82330002B04D0FB79084A52F8E8
:1007100023309847FB790133FB71FB790F2BDBD931
:1007200000BF00BF0837BD4680BD00BF00040140C8
:100730006400002080B582B000AF0023FB7117E099
:100740000023BB710EE0FB79002B08D1BB791B4A5B
:10075000D25CB979FB79184600F034F800BFBB7958
:100760000133BB71BB790F2BEDD9FB790133FB71E1
:10077000FB79022BE4D90023FB7117E00023BB7146
:100780000EE0FB79002B08D1BB790D4AD25CB97918
:10079000FB79184600F0E2F800BFBB790133BB716A
:1007A000BB790F2BEDD9FB790133FB71FB79022B60
:1007B000E4D900BF00BF0837BD4680BD000000205F
:1007C0001000002080B485B000AF0346FB710B46DB
:1007D000BB7113467B71FB79022B00F2B7807B79EA
:1007E0001B11DBB203F00103FB737B7923F01003D1
:1007F0007B71BB79072B51D8FB79574A52F82330CC
:100800001A68BB799B000F2101FA03F3DB431846FA
:10081000FB79514951F8233002401A60FB794E4A66
:1008200052F823301A687979BB799B0001FA03F3F7
:100830001846FB79484951F8233002431A607B7906
:10084000082B14D1FB7B002B11D1FB79424A52F8C3
:100850002330DA68BB79012101FA03F3DB43184640
:10086000FB793D4951F823300240DA606EE07B7934
:10087000082B6BD1FB7B012B68D1FB79364A52F8F0
:100880002330DA68BB79012101FA03F31846FB79BA
:10089000314951F823300243DA6057E0BB790F2B1E
:1008A00054D8BB79083BBB71FB792B4A52F82330F3
:1008B0005A68BB799B000F2101FA03F3DB4318460A
:1008C000FB79254951F8233002405A60FB79224ACE
:1008D00052F823305A687979BB799B0001FA03F307
:1008E0001846FB791C4951F8233002435A607B7942
:1008F000082B14D1FB7B002B11D1FB79164A52F83F
:100900002330DA68BB79012101FA03F3DB4318468F
:10091000FB79114951F823300240DA6016E07B7907
:10092000082B13D1FB7B012B10D1FB790A4A52F81B
:100930002330DA68BB79012101FA03F31846FB7909
:10094000054951F823300243DA60FFE700BF14374E
:10095000BD4680BC704700BF2000002080B483B03B
:1009600000AF0346FB710B46BB7113467B71FB79ED
:10097000022B1DD8BB790F2B1AD87B79002B0CD0FA
:10098000012B15D1BB79012202FA03F1FB790B4A45
:1009900052F823300A461A610AE0BB79012202FAB2
:1009A00003F1FB79054A52F823300A465A6100BF29
:1009B00000BF0C37BD4680BC704700BF2000002040
:1009C00080B400AF034B044A1A6000BFBD4680BC30
:1009D000704700BF0CED00E00005A05F80B400AFE1
:1009E0001D4B1B6823F0F8031B4A43F08003136080
:1009F000194B1B68184A43F480231360164B1B687D
:100A0000154A43F480331360134B5B68124A43F07A
:100A100001035360104B5B680F4A23F002035360DD
:100A20000D4B5B680C4A23F4404353600A4B5B68F0
:100A3000094A23F460535360074B5B68064A23F46A
:100A4000E0635360044B5B68034A23F0F003536098
:100A500000BFBD4680BC70470010024080B483B028
:100A600000AF03460A46FB711346BB71FB791F2B8F
:100A70001BD8BB79002B0CD0012B5AD12F4B5B69B3
:100A8000FA79012101FA02F211462C4A0B43536113
:100A90004FE02A4B5B69FA79012101FA02F2D24355
:100AA0001146264A0B40536143E0FB793F2B1ED889
:100AB000FB79203BFB71BB79002B0CD0012B38D18B
:100AC0001E4B9B69FA79012101FA02F211461B4A79
:100AD0000B4393612DE0194B9B69FA79012101FACF
:100AE00002F2D2431146154A0B40936121E0FB7993
:100AF0005F2B1ED8FB79403BFB71BB79002B0CD0E0
:100B0000012B16D10D4BDB69FA79012101FA02F2B2
:100B100011460A4A0B43D3610BE0084BDB69FA79B3
:100B2000012101FA02F2D2431146044A0B40D3617B
:100B300000BF00BF0C37BD4680BC704700100240AC
:100B400080B500AF124B1B68114A23F48033136049
:100B5000104B1B78012B11D10D4B1B680C4A23F055
:100B6000010313600A4B1B68094A23F00203136058
:100B7000074B00225A60064B00229A60064B1B6806
:100B8000002B02D0044B1B68984700BF80BD00BFFC
:100B900010E000E0A4000020A800002080B483B092
:100BA00000AF03460A46FB711346BB800C4B002284
:100BB0001A600B4B1B680A4A23F080031360084B32
:100BC0001B68FA7912011146054A0B431360BB8872
:100BD0005A1E034B9A6200BF0C37BD4680BC70475B
:100BE000002C014080B483B000AF0346FB71FB7959
:100BF000032B00F2878001A252F823F00D0C0008AD
:100C00004B0C0008890C0008C70C0008404B9B697E
:100C10003F4A43F0080393613D4B9B693C4A23F0F4
:100C2000030393613A4B9B69394A43F06003936134
:100C3000374B1B6A364A23F002031362344B1B6A9C
:100C4000334A23F0010313625CE0314B9B69304A65
:100C500023F4407393612E4B9B692D4A43F4006348
:100C600093612B4B9B692A4A43F4C0439361284B01
:100C70001B6A274A23F020031362254B1B6A244A70
:100C800023F0100313623DE0214BDB69204A23F07F
:100C90000303D3611E4BDB691D4A43F00803D36194
:100CA0001B4BDB691A4A43F06003D361184B1B6A84
:100CB000174A23F400731362154B1B6A144A23F47A
:100CC000807313621EE0124BDB69114A23F44073F8
:100CD000D3610F4BDB690E4A43F40063D3610C4BC5
:100CE000DB690B4A43F4C043D361094B1B6A084AD2
:100CF00023F400531362064B1B6A054A23F4805306
:100D0000136200BF00BF0C37BD4680BC704700BFF8
:100D1000002C01402DE9B04384B000AF396001469A
:100D2000F97139680020884681461849896A01317D
:100D300000200C46054604FB09F008FB05F10144C0
:100D4000A8FB042319440B4611484FF00001FFF79C
:100D50000FFA02460B4693B2013BFB81FB79032B52
:100D60000ED80A4AFB89D362084B5B6C074A43F4EE
:100D700000435364054B1B68044A43F001031360AE
:100D800000BF1037BD46BDE8B08300BF002C014056
:100D900000127A0080B483B000AF03460A46FB71AC
:100DA0001346BB80FB79032B12D80C49FB79BA8818
:100DB0000C339B000B445A60084B5B6C074A43F4AE
:100DC00000435364054B1B68044A43F0010313605E
:100DD00000BF0C37BD4680BC704700BF002C0140EF
:100DE00080B500AF074B1B68002B02D0054B1B687A
:100DF0009847054B1B69044A23F00103136100BFA8
:100E000080BD00BFAC000020002C014080B500AFC9
:100E1000074B1B68064A23F020031360054B1B6831
:100E2000002B02D0034B1B68984700BF80BD00BF5A
:100E300000380140B000002080B500AF074B1B68B0
:100E4000064A23F020031360054B5B68002B02D099
:100E5000034B5B68984700BF80BD00BF0044004063
:100E6000B000002080B500AF074B1B68064A23F096
:100E700020031360054B9B68002B02D0034B9B683B
:100E8000984700BF80BD00BF00480040B000002070
:100E900080B485B000AF0346FB8001237B817B8952
:100EA0001A465201D21A520113447B810023FB815E
:100EB0000DE00023BB8103E000BFBB890133BB8190
:100EC000BA897B899A42F7D3FB890133FB81FA897E
:100ED000FB889A42EDD300BF00BF1437BD4680BCEB
:100EE000704780B582B000AFFFF778FD0121222066
:100EF000FFF7B4FD01212020FFF7B0FDFFF71AFC3A
:100F000004210020FFF74AFEFFF75AFD0320FFF7F8
:100F1000AFFA0A23FB71FB79782B01D90A23FB7105
:100F2000FB791946032000F005F8FB790133FB71CA
:100F3000F1E7000080B584B000AF03460A46FB71BC
:100F40001346BB71FB79194AD35CBB73BA7BBB797F
:100F50009A4227D0FB791549BA79CA54BA79BB7B32
:100F60009A4201D9012301E04FF0FF337B73BB7B31
:100F7000FB730CE0FA7BFB7911461846FFF790FAF9
:100F80003220FFF785FF7A7BFB7B1344FB73FA7BF0
:100F9000BB799A42EED1BA79FB7911461846FFF730
:100FA0007FFA00E000BF1037BD4680BDBC000020C6
:100FB0000D488546AFF300800C480D490D4A0023CB
:100FC00002E0D458C4500433C4188C42F9D30A4AFE
:100FD0000A4C002301E013600432A242FBD300F06C
:100FE00011F8FFF77EFFFEE7005000200000002010
:100FF0002C000020741000082C000020C0000020ED
:10100000FEE7000070B500260C4D0D4C641BA410CB
:10101000A64209D100F01AF800260A4D0A4C641BBA
:10102000A410A64205D170BD55F8043B984701367F
:10103000EEE755F8043B98470136F2E76C100008DC
:101040006C1000086C10000870100008F8B500BFA4
:10105000F8BC08BC9E467047F8B500BFF8BC08BC99
:041060009E467047F1
:081064003CF1FF7F01000000D8
:04106C005501000822
:041070003101000842
:1010740000000E04020202020A0A0A0A0202020222
:101084000000000101010100000000000101010154
:0C10940000080140000C01400010014069
:0400000508000FB12F
:00000001FF
