:020000040800F2
:100000000050002061160008B1160008B116000863
:10001000B1160008B1160008B11600080000000073
:10002000000000000000000000000000B116000801
:10003000B116000800000000B116000865110008A4
:10004000B1160008B1160008B1160008B116000874
:10005000B1160008B1160008910B0008B50B000896
:10006000D90B0008FD0B0008210C0008CD0A000880
:10007000E90A0008050B0008210B00083D0B0008E9
:10008000590B0008750B0008B1160008B1160008DE
:10009000B1160008B1160008B1160008450C00089A
:1000A000B116000811140008B1160008B1160008B6
:1000B000B1160008B1160008B1160008B116000804
:1000C000B1160008B1160008B1160008B1160008F4
:1000D000B116000899140008C5140008F1140008AE
:1000E000B50C0008B116000800000000B1160008A9
:1000F000B1160008B1160008B1160008B1160008C4
:10010000B1160008B1160008B1160008B1160008B3
:10011000B1160008B1160008B1160008B1160008A3
:10012000B1160008B1160008B1160008B116000893
:1001300010B5054C237833B9044B13B10448AFF321
:1001400000800123237010BD540000200000000037
:10015000FC16000808B5034B1BB103490348AFF375
:10016000008008BD0000000058000020FC160008B8
:1001700053B94AB9002908BF00281CBF4FF0FF310E
:100180004FF0FF3000F072B9ADF1080C6DE904CE0C
:1001900000F006F8DDF804E0DDE9022304B0704762
:1001A0002DE9F047089E0D4604468E46002B4CD1A3
:1001B0008A42944667D9B2FA82F353B102FA03FC39
:1001C000C3F1200201FA03FE20FA02F242EA0E0E07
:1001D0009C404FEA1C47BEFBF7F11FFA8CF507FB6A
:1001E00011EE01FB05F0220C42EA0E4290420AD9C0
:1001F0001CEB020201F1FF3E80F01981904240F2B7
:10020000168102396244121AB2FBF7F007FB102282
:1002100000FB05F5A4B244EA0244A5420AD91CEB4E
:10022000040400F1FF3280F00481A54240F2018114
:100230006444023840EA01400021641B1EB1DC40E6
:100240000023C6E90043BDE8F0878B4208D9002EA1
:1002500000F0EA800021C6E900050846BDE8F08705
:10026000B3FA83F1002948D1AB4202D3824200F2B3
:10027000F880841A65EB030201209646002EE2D036
:10028000C6E9004EDFE702B9FFDEB2FA82F3002BC7
:1002900040F08E80881A0121170C1FFA82FEB0FBF5
:1002A000F7F507FB1500220C42EA00420EFB05F0B1
:1002B000904208D91CEB020205F1FF3802D29042AD
:1002C00000F2CC804546121AB2FBF7F007FB102271
:1002D0000EFB00FEA4B244EA0244A64508D91CEB7A
:1002E000040400F1FF3202D2A64500F2B4801046A9
:1002F000A4EB0E0440EA0540A0E7C1F120078B40C3
:1003000022FA07FC4CEA030C25FA07FA4FEA1C49CB
:10031000BAFBF9F88D4020FA07F309FB18AA1FFA77
:100320008CFE2B4300FA01F508FB0EF01C0C44EA8E
:100330000A44A04202FA01F20BD91CEB040408F1B2
:10034000FF3A80F08680A04240F28380A8F1020844
:100350006444241A98B2B4FBF9F309FB134403FB79
:100360000EFE40EA0444A64508D91CEB040403F140
:10037000FF306AD2A64568D9023B644443EA08408C
:10038000A0FB0293A4EB0E049C42C8469E4654D3A5
:1003900051D0002E67D0B5EB080364EB0E04CB40C0
:1003A00004FA07F71F43CC40C6E9007400214AE76E
:1003B00002FA03FCC3F12000C1409D4024FA00F082
:1003C0004FEA1C472843B1FBF7F507FB15111FFA4D
:1003D0008CFE020C42EA014205FB0EF1914204FA46
:1003E00003F408D91CEB020205F1FF382FD2914229
:1003F0002DD9023D6244521AB2FBF7F107FB1122DC
:1004000080B240EA024001FB0EF2824208D91CEBA6
:10041000000001F1FF3816D2824214D9023960443B
:10042000801A41EA05413AE7314630460BE771460A
:10043000E9E61046FEE64D45ABD2B9EB020863EBA8
:100440000C0E0138A5E74146EAE7034696E7454624
:10045000D1E7D0467DE76444023849E7023D624473
:1004600031E708460AE73146EDE600BF704700BFB6
:1004700080B582B000AF0346FB71FB79184600F0EF
:10048000C3FEFB793221184600F05CFFFB790021A6
:10049000184600F005F800BF0837BD4680BD0000D3
:1004A00080B584B000AF03460A46FB711346BB71AA
:1004B000BB79FB60FB68642202FB03F3084AA2FBE2
:1004C00003235B089BB203F2CF737B817A89FB79AC
:1004D0001146184600F076FF00BF1037BD4680BDBC
:1004E000398EE33890B482B000AF04460846114616
:1004F0001A462346FB710346BB710B467B711346BC
:100500003B719349FA7913469B0013449B000B44BB
:10051000083300221A6000BF8D49FA7913469B0008
:1005200013449B000B4408331B6803F00103012BA9
:10053000F2D03B7C032B00F2628101A252F823F03F
:1005400051050008A5060008FB050008550700082E
:100550007F49FA7913469B0013449B000B440833F0
:100560001B687B48FA7923F4804113469B001344AF
:100570009B000344083319607549FA7913469B00C0
:1005800013449B000B4408331B687148FA7923F02D
:10059000100113469B0013449B0003440833196069
:1005A0006B49FA7913469B0013449B000B440833B4
:1005B0001B683A7D920111466548FA791943134642
:1005C0009B0013449B000344083319606049FA7987
:1005D00013469B0013449B000B4408331B683A7E70
:1005E000D20111465A48FA79194313469B00134425
:1005F0009B0003440833196001E15549FA79134619
:100600009B0013449B000B4408331B685048FA7945
:1006100043F4804113469B0013449B00034408337A
:1006200019604B49FA7913469B0013449B000B4415
:1006300008331B684648FA7943F0100113469B00C3
:1006400013449B000344083319604149FA79134667
:100650009B0013449B000B4408331B683A7D9201B6
:1006600011463B48FA79194313469B0013449B00FB
:100670000344083319603649FA7913469B00134442
:100680009B000B4408331B683A7ED2011146304868
:10069000FA79194313469B0013449B000344083323
:1006A0001960ACE02A49FA7913469B0013449B0079
:1006B0000B4408331B682648FA7923F4804113461B
:1006C0009B0013449B000344083319602049FA79C6
:1006D00013469B0013449B000B4408331B681C48C3
:1006E000FA7943F0100113469B0013449B00034426
:1006F000083319601649FA7913469B0013449B008E
:100700000B4408331B683A7DD20111461048FA7930
:10071000194313469B0013449B000344083319609C
:100720000B49FA7913469B0013449B000B44083392
:100730001B683A7E920111460548FA79194313461F
:100740009B0013449B0003440833196057E000BF2B
:10075000000002406449FA7913469B0013449B0051
:100760000B4408331B686048FA7923F48041134630
:100770009B0013449B000344083319605A49FA79DB
:1007800013469B0013449B000B4408331B685648D8
:10079000FA7923F0100113469B0013449B00034495
:1007A000083319605049FA7913469B0013449B00A3
:1007B0000B4408331B683A7DD20111464A48FA7946
:1007C000194313469B0013449B00034408331960EC
:1007D0004549FA7913469B0013449B000B440833A8
:1007E0001B683A7E920111463F48FA791943134635
:1007F0009B0013449B0003440833196000BF3A492F
:10080000FA7913469B0013449B000B4408331B6882
:10081000BA79120311463448FA79194313469B00FA
:1008200013449B000344083319602F49FA79134697
:100830009B0013449B000B4408331B683A79120257
:1008400011462948FA79194313469B0013449B002B
:100850000344083319602449FA7913469B00134472
:100860009B000B4408331B687A79920211461E489C
:10087000FA79194313469B0013449B000344083341
:1008800019601949FA7913469B0013449B000B44E5
:1008900008331B6897F82020520111461248FA7954
:1008A000194313469B0013449B000344083319600B
:1008B0000D49FA7913469B0013449B000B440833FF
:1008C0001B683A7F520011460748FA7919431346CC
:1008D0009B0013449B0003440833196000BF083792
:1008E000BD4690BC704700BF0000024080B582B09A
:1008F00000AF0346FB71FB790021184600F0C8F8F1
:10090000FB790121184600F0C3F8FB790221184653
:1009100000F0BEF8FB790321184600F0B9F80C4945
:10092000FA7913469B0013449B000B4408331B6861
:100930000748FA7943F0010113469B0013449B00DA
:1009400003440833196000BF0837BD4680BD00BFAF
:100950000000024080B483B000AF0346FB7114492D
:10096000FA7913469B0013449B000B4408331B6821
:100970000F48FA7923F0010113469B0013449B00B2
:1009800003440833196000BF0949FA7913469B00F4
:1009900013449B000B4408331B6803F00103002B36
:1009A000F2D100BF00BF0C37BD4680BC704700BF0E
:1009B0000000024080B584B000AFB9607A601A468A
:1009C0000346FB731346BB81FB7B1846FFF7C2FF50
:1009D0007B68092B0DD82348FA7B23497B6851F8A3
:1009E000231013469B0013449B00034410331960EB
:1009F0000CE07B68092B09D91A49FA7B13469B0046
:100A000013449B000B4410337A681A60BB68092BAF
:100A10000DD81448FA7B1449BB6851F823101346CB
:100A20009B0013449B000344143319600CE0BB6823
:100A3000092B09D90B49FA7B13469B0013449B00F1
:100A40000B441433BA681A600648FA7BB989134616
:100A50009B0013449B0003440C33196000BF103704
:100A6000BD4680BD000002400000002080B483B07D
:100A700000AF03463960FB71FB7904493A6841F8DD
:100A8000232000BF0C37BD4680BC7047700000209B
:100A900080B483B000AF03460A46FB711346BB71B6
:100AA000FB799B00FB71084B5B68F979BA790A44C2
:100AB000012101FA02F21146034A0B43536000BFC1
:100AC0000C37BD4680BC70470000024080B500AFC7
:100AD000044B1B68002B02D0024B1B68984700BFD9
:100AE00080BD00BF7000002080B500AF044B5B6884
:100AF000002B02D0024B5B68984700BF80BD00BF4F
:100B00007000002080B500AF044B9B68002B02D022
:100B1000024B9B68984700BF80BD00BF700000205B
:100B200080B500AF044BDB68002B02D0024BDB68C2
:100B3000984700BF80BD00BF7000002080B500AFA7
:100B4000044B1B69002B02D0024B1B69984700BF66
:100B500080BD00BF7000002080B500AF044B5B6912
:100B6000002B02D0024B5B69984700BF80BD00BFDD
:100B70007000002080B500AF044B9B69002B02D0B1
:100B8000024B9B69984700BF80BD00BF70000020EA
:100B900080B500AF054B01225A61054B1B68002B45
:100BA00002D0034B1B68984700BF80BD0004014082
:100BB0008C00002080B500AF054B02225A61054B26
:100BC0005B68002B02D0034B5B68984700BF80BD79
:100BD000000401408C00002080B500AF054B0422CA
:100BE0005A61054B9B68002B02D0034B9B689847CA
:100BF00000BF80BD000401408C00002080B500AF24
:100C0000054B08225A61054BDB68002B02D0034BD1
:100C1000DB68984700BF80BD000401408C000020C5
:100C200080B500AF054B10225A61054B1B69002BA4
:100C300002D0034B1B69984700BF80BD00040140F0
:100C40008C00002080B582B000AF0523FB7124E04A
:100C5000164B5A69FB7922FA03F303F00103012BC7
:100C600018D1124B1A68FB7922FA03F303F001033F
:100C7000012B0FD1FB7901229A400C4B5A61FB7971
:100C80000B4A52F82330002B04D0FB79084A52F863
:100C900023309847FB790133FB71FB79092BD7D9B6
:100CA00000BF00BF0837BD4680BD00BF0004014043
:100CB0008C00002080B582B000AF0A23FB7120E0D9
:100CC000144B5A69FB7922FA03F303F00103012B59
:100CD00014D1104B5B69FA79012101FA02F2114635
:100CE0000C4A0B435361FB790B4A52F82330002B1B
:100CF00004D0FB79084A52F823309847FB79013336
:100D0000FB71FB790F2BDBD900BF00BF0837BD4655
:100D100080BD00BF000401408C00002080B582B07F
:100D200000AF0023FB7117E00023BB710EE0FB79DD
:100D3000002B08D1BB791B4AD25CB979FB791846E4
:100D400000F034F800BFBB790133BB71BB790F2BC6
:100D5000EDD9FB790133FB71FB79022BE4D9002338
:100D6000FB7117E00023BB710EE0FB79002B08D16B
:100D7000BB790D4AD25CB979FB79184600F0E2F8EC
:100D800000BFBB790133BB71BB790F2BEDD9FB7968
:100D90000133FB71FB79022BE4D900BF00BF083798
:100DA000BD4680BD280000203800002080B485B0FA
:100DB00000AF0346FB710B46BB7113467B71FB7999
:100DC000022B00F2B7807B791B11DBB203F0010329
:100DD000FB737B7923F010037B71BB79072B51D810
:100DE000FB79574A52F823301A68BB799B000F21D0
:100DF00001FA03F3DB431846FB79514951F82330DC
:100E000002401A60FB794E4A52F823301A68797909
:100E1000BB799B0001FA03F31846FB79484951F866
:100E2000233002431A607B79082B14D1FB7B002B03
:100E300011D1FB79424A52F82330DA68BB7901219B
:100E400001FA03F3DB431846FB793D4951F823309F
:100E50000240DA606EE07B79082B6BD1FB7B012BC3
:100E600068D1FB79364A52F82330DA68BB79012120
:100E700001FA03F31846FB79314951F82330024354
:100E8000DA6057E0BB790F2B54D8BB79083BBB71B4
:100E9000FB792B4A52F823305A68BB799B000F210B
:100EA00001FA03F3DB431846FB79254951F8233057
:100EB00002405A60FB79224A52F823305A68797905
:100EC000BB799B0001FA03F31846FB791C4951F8E2
:100ED000233002435A607B79082B14D1FB7B002B13
:100EE00011D1FB79164A52F82330DA68BB79012117
:100EF00001FA03F3DB431846FB79114951F823301B
:100F00000240DA6016E07B79082B13D1FB7B012BC2
:100F100010D1FB790A4A52F82330DA68BB790121F3
:100F200001FA03F31846FB79054951F823300243CF
:100F3000DA60FFE700BF1437BD4680BC704700BFD2
:100F40004800002080B483B000AF0346FB710B461D
:100F5000BB7113467B71FB79022B1DD8BB790F2B1C
:100F60001AD87B79002B0CD0012B15D1BB7901222B
:100F700002FA03F1FB790B4A52F823300A461A6150
:100F80000AE0BB79012202FA03F1FB79054A52F823
:100F900023300A465A6100BF00BF0C37BD4680BCF3
:100FA000704700BF4800002080B400AF034B044AE4
:100FB0001A6000BFBD4680BC704700BF0CED00E06A
:100FC0000005A05F80B483B000AF0346FB71FB79DE
:100FD0001F2B05D8FB7901229A40074B1A6005E0C8
:100FE000FB79203B01229A40044B1A6000BF0C376A
:100FF000BD4680BC704700BF00E100E004E100E0B6
:1010000080B400AF1D4B1B6823F0F8031B4A43F06C
:1010100080031360194B1B68184A43F48023136044
:10102000164B1B68154A43F480331360134B5B68FF
:10103000124A43F001035360104B5B680F4A23F0E0
:10104000020353600D4B5B680C4A23F4404353602A
:101050000A4B5B68094A23F460535360074B5B6893
:10106000064A23F4E0635360044B5B68034A23F0B1
:10107000F003536000BFBD4680BC704700100240C3
:1010800080B483B000AF03460A46FB711346BB71C0
:10109000FB791F2B1BD8BB79002B0CD0012B5AD10D
:1010A0002F4B5B69FA79012101FA02F211462C4AB1
:1010B0000B4353614FE02A4B5B69FA79012101FA36
:1010C00002F2D2431146264A0B40536143E0FB79BA
:1010D0003F2B1ED8FB79203BFB71BB79002B0CD03A
:1010E000012B38D11E4B9B69FA79012101FA02F2DA
:1010F00011461B4A0B4393612DE0194B9B69FA790A
:10110000012101FA02F2D2431146154A0B409361C4
:1011100021E0FB795F2B1ED8FB79403BFB71BB794B
:10112000002B0CD0012B16D10D4BDB69FA79012174
:1011300001FA02F211460A4A0B43D3610BE0084B55
:10114000DB69FA79012101FA02F2D2431146044A1D
:101150000B40D36100BF00BF0C37BD4680BC704759
:101160000010024080B500AF124B1B68114A23F4F7
:1011700080331360104B1B78012B11D10D4B1B6872
:101180000C4A23F0010313600A4B1B68094A23F041
:1011900002031360074B00225A60064B00229A603C
:1011A000064B1B68002B02D0044B1B68984700BFFE
:1011B00080BD00BF10E000E0CC000020D000002087
:1011C00080B483B000AF03460A46FB711346BB8070
:1011D0000C4B00221A600B4B1B680A4A43F0800339
:1011E0001360084B1B68FA7912011146054A0B433C
:1011F0001360BB885A1E034B9A6200BF0C37BD4672
:1012000080BC7047002C014080B483B000AF03461F
:10121000FB71FB79032B00F28D8001A252F823F0C1
:10122000311200087B120008B9120008F7120008FA
:10123000434B9B69424A43F008039361404B9B69CF
:101240003F4A23F0010393613D4B9B693C4A23F0E5
:10125000020393613A4B9B69394A43F070039361EF
:10126000374B1B6A364A23F002031362344B1B6A66
:10127000334A43F0010313625CE0314B9B69304A0F
:1012800023F4407393612E4B9B692D4A43F4006312
:1012900093612B4B9B692A4A43F4E0439361284BAB
:1012A0001B6A274A23F020031362254B1B6A244A3A
:1012B00043F0100313623DE0214BDB69204A23F029
:1012C0000303D3611E4BDB691D4A43F00803D3615E
:1012D0001B4BDB691A4A43F07003D361184B1B6A3E
:1012E000174A23F400731362154B1B6A144A43F424
:1012F000807313621EE0124BDB69114A23F44073C2
:10130000D3610F4BDB690E4A43F40063D3610C4B8E
:10131000DB690B4A43F4E043D361094B1B6A084A7B
:1013200023F400531362064B1B6A054A43F48053AF
:10133000136200BF00BF0C37BD4680BC704700BFC2
:10134000002C01402DE9B04384B000AF3960014664
:10135000F97139680020884681461849896A013147
:1013600000200C46054604FB09F008FB05F101448A
:10137000A8FB042319440B4611484FF00001FEF767
:10138000F7FE02460B4693B2013BFB81FB79032B30
:101390000ED80A4AFB89D362084B5B6C074A43F4B8
:1013A00000435364054B1B68044A43F00103136078
:1013B00000BF1037BD46BDE8B08300BF002C014020
:1013C00000127A0080B483B000AF03460A46FB7176
:1013D0001346BB80FB79032B12D80C49FB79BA88E2
:1013E0000C339B000B445A60084B5B6C074A43F478
:1013F00000435364054B1B68044A43F00103136028
:1014000000BF0C37BD4680BC704700BF002C0140B8
:1014100080B500AF074B1B68002B02D0054B1B6843
:101420009847054B1B69044A23F00103136100BF71
:1014300080BD00BFD4000020002C014080B400AF6C
:10144000144BDB68134A43F40053D360114B114A29
:10145000DB68D3600F4B0F4A1B6913610D4B0D4ABC
:10146000DB68D3600B4B0B4ADB68D360094BDB684E
:10147000084A43F00C03D360064B40F241329A60B5
:10148000044B5B69034A43F0C003536100BFBD4690
:1014900080BC70470044004080B500AF074B1B681C
:1014A000064A23F020031360054B1B68002B02D073
:1014B000034B1B68984700BF80BD00BF0038014048
:1014C000D800002080B500AF074B1B68064A23F008
:1014D00020031360054B5B68002B02D0034B5B6855
:1014E000984700BF80BD00BF00440040D8000020E6
:1014F00080B500AF074B1B68064A23F0200313603A
:10150000054B9B68002B02D0034B9B68984700BF9C
:1015100080BD00BF00480040D800002080B500AF6B
:10152000224B1B78303B052B26D801A252F823F022
:1015300049150008511500085915000861150008E3
:101540006915000871150008184B00221A7013E085
:10155000164B2D221A700FE0144B3F221A700BE02D
:10156000124B5A221A7007E0104B87221A7003E0C0
:101570000E4BB4221A7000BF0C4B1B78194600208A
:10158000FEF78EFF094B1B7819460120FEF788FFF6
:10159000064B1B7819460220FEF782FF034B1B788F
:1015A00019460320FEF77CFF00BF80BDE400002049
:1015B00080B586B006AFFFF723FD01212220FFF79B
:1015C0005FFD01212020FFF75BFD01215120FFF786
:1015D00057FD01212B20FFF753FD01210020FFF7CC
:1015E0004FFDFFF79BFB04210020FFF7E9FD0020E2
:1015F000FEF73EFF0120FEF73BFF0220FEF738FF1B
:101600000320FEF735FFFFF7CFFCFFF717FF01239D
:1016100004930123039300230293002301930023E7
:1016200000930023002202210520FEF75BFF0A49F8
:101630000520FFF71BFA0949012303220520FFF7C4
:10164000B9F90520FFF752F91020FFF7BBFC26205F
:10165000FFF7B8FCFEE700BF1D150008E4000020FE
:101660000D488546AFF300800C480D490D4A002314
:1016700002E0D458C4500433C4188C42F9D30A4A47
:101680000A4C002301E013600432A242FBD300F0B5
:1016900011F8FFF78DFFFEE700500020000000204A
:1016A000540000202417000854000020E800002007
:1016B000FEE7000070B500260C4D0D4C641BA41015
:1016C000A64209D100F01AF800260A4D0A4C641B04
:1016D000A410A64205D170BD55F8043B98470136C9
:1016E000EEE755F8043B98470136F2E71C1700086F
:1016F0001C1700081C17000820170008F8B500BFC9
:10170000F8BC08BC9E467047F8B500BFF8BC08BCE2
:041710009E4670473A
:081714008CEAFF7F01000000D8
:04171C00550100086B
:04172000310100088B
:1017240004380140043801400444004004440040AB
:1017340004480040044800400C3001400C30014093
:101744000C3800400C38004000000E040202020273
:101754000A0A0A0A02020202000000010101010051
:10176400000000000101010100080140000C0140DB
:041774000010014020
:040000050800166178
:00000001FF
