:020000040800F2
:1000000000500020650A0008B50A0008B50A00087B
:10001000B50A0008B50A0008B50A0008000000008B
:10002000000000000000000000000000B50A000809
:10003000B50A000800000000B50A0008050800081D
:10004000B50A0008B50A0008B50A0008B50A000894
:10005000B50A0008B50A0008650500087D05000816
:1000600095050008AD050008C5050008F504000861
:1000700005050008150500082505000835050008D8
:100080004505000855050008B50A0008B50A00082E
:10009000B50A0008B50A0008B50A0008DD05000821
:1000A000B50A000881090008B50A0008B50A000869
:1000B000B50A0008B50A0008B50A0008B50A000824
:1000C000B50A0008B50A0008B50A0008B50A000814
:1000D000B50A000891090008AD090008C90900081F
:1000E00015060008B50A000800000000B50A00085F
:1000F000B50A0008B50A0008B50A0008B50A0008E4
:10010000B50A0008B50A0008B50A0008B50A0008D3
:10011000B50A0008B50A0008B50A0008B50A0008C3
:10012000B50A0008B50A0008B50A0008B50A0008B3
:1001300010B5054C237833B9044B13B10448AFF321
:1001400000800123237010BD20000020000000006B
:10015000000B000808B5034B1BB103490348AFF37C
:10016000008008BD0000000024000020000B0008F3
:1001700053B94AB9002908BF00281CBF4FF0FF310E
:100180004FF0FF3000F072B9ADF1080C6DE904CE0C
:1001900000F006F8DDF804E0DDE9022304B0704762
:1001A0002DE9F047089E0D4604468E46002B4CD1A3
:1001B0008A42944667D9B2FA82F353B102FA03FC39
:1001C000C3F1200201FA03FE20FA02F242EA0E0E07
:1001D0009C404FEA1C47BEFBF7F11FFA8CF507FB6A
:1001E00011EE01FB05F0220C42EA0E4290420AD9C0
:1001F0001CEB020201F1FF3E80F01981904240F2B7
:10020000168102396244121AB2FBF7F007FB102282
:1002100000FB05F5A4B244EA0244A5420AD91CEB4E
:10022000040400F1FF3280F00481A54240F2018114
:100230006444023840EA01400021641B1EB1DC40E6
:100240000023C6E90043BDE8F0878B4208D9002EA1
:1002500000F0EA800021C6E900050846BDE8F08705
:10026000B3FA83F1002948D1AB4202D3824200F2B3
:10027000F880841A65EB030201209646002EE2D036
:10028000C6E9004EDFE702B9FFDEB2FA82F3002BC7
:1002900040F08E80881A0121170C1FFA82FEB0FBF5
:1002A000F7F507FB1500220C42EA00420EFB05F0B1
:1002B000904208D91CEB020205F1FF3802D29042AD
:1002C00000F2CC804546121AB2FBF7F007FB102271
:1002D0000EFB00FEA4B244EA0244A64508D91CEB7A
:1002E000040400F1FF3202D2A64500F2B4801046A9
:1002F000A4EB0E0440EA0540A0E7C1F120078B40C3
:1003000022FA07FC4CEA030C25FA07FA4FEA1C49CB
:10031000BAFBF9F88D4020FA07F309FB18AA1FFA77
:100320008CFE2B4300FA01F508FB0EF01C0C44EA8E
:100330000A44A04202FA01F20BD91CEB040408F1B2
:10034000FF3A80F08680A04240F28380A8F1020844
:100350006444241A98B2B4FBF9F309FB134403FB79
:100360000EFE40EA0444A64508D91CEB040403F140
:10037000FF306AD2A64568D9023B644443EA08408C
:10038000A0FB0293A4EB0E049C42C8469E4654D3A5
:1003900051D0002E67D0B5EB080364EB0E04CB40C0
:1003A00004FA07F71F43CC40C6E9007400214AE76E
:1003B00002FA03FCC3F12000C1409D4024FA00F082
:1003C0004FEA1C472843B1FBF7F507FB15111FFA4D
:1003D0008CFE020C42EA014205FB0EF1914204FA46
:1003E00003F408D91CEB020205F1FF382FD2914229
:1003F0002DD9023D6244521AB2FBF7F107FB1122DC
:1004000080B240EA024001FB0EF2824208D91CEBA6
:10041000000001F1FF3816D2824214D9023960443B
:10042000801A41EA05413AE7314630460BE771460A
:10043000E9E61046FEE64D45ABD2B9EB020863EBA8
:100440000C0E0138A5E74146EAE7034696E7454624
:10045000D1E7D0467DE76444023849E7023D624473
:1004600031E708460AE73146EDE600BF704700BFB6
:1004700010B5044600F0F4F92046322100F052FA9B
:100480002046BDE8104040F2CF7100F067BA642307
:1004900059430923B1FBF3F101F2CF7100F05EBAC9
:1004A000032824D8DFE800F0020C151E104B5A6810
:1004B00022F040025A605A6822F080025A60704767
:1004C0000B4B5A6822F480725A605A6822F4007208
:1004D000F4E7074B5A6822F480625A605A6822F4A3
:1004E0000062EBE7024A536823F48053536070477D
:1004F00000000140024B1B6803B11847704700BF62
:100500003C000020024B5B6803B11847704700BFF6
:100510003C000020024B9B6803B11847704700BFA6
:100520003C000020024BDB6803B11847704700BF56
:100530003C000020024B1B6903B11847704700BF05
:100540003C000020024B5B6903B11847704700BFB5
:100550003C000020024B9B6903B11847704700BF65
:100560003C0000200122034B5A61034B1B6803B17E
:100570001847704700040140580000200222034B36
:100580005A61034B5B6803B1184770470004014090
:10059000580000200422034B5A61034B9B6803B1AF
:1005A0001847704700040140580000200822034B00
:1005B0005A61034BDB6803B11847704700040140E0
:1005C000580000201022034B5A61034B1B6903B1F2
:1005D000184770470004014058000020F8B5052472
:1005E00001260A4D0A4F6B69E340DA070AD52B68EA
:1005F000E340DB0706D506FA04F36B6157F82430B5
:1006000003B1984701340A2CEDD1F8BD0004014034
:1006100058000020F8B50A240126094D094F6B69DE
:10062000E340DB0708D56A6906FA04F313436B61FC
:1006300057F8243003B198470134102CEFD1F8BD9E
:100640000004014058000020072970B5C2F30014CF
:1006500002F0EF0218D80F26164B53F8203088000E
:100660001D68864025EA06051D601D6802FA00F037
:1006700028431860082A06D101228A40D968BCB9EB
:1006800021EA0202DA6070BD0F29FCD80F26094B5F
:10069000083953F82030C9B25D688800864025EAE1
:1006A00006055D605D6802FA00F028435860E1E7E6
:1006B0000A43E7E7180B0008022810D80F290ED8C4
:1006C0003AB1012A0BD1064B8A4053F820301A6107
:1006D0007047034B53F8202001238B405361704730
:1006E000180B000870B500240F4E0025E9B21CB9A4
:1006F0002046725DFFF7A8FF0135102DF6D10134B9
:10070000E4B2032CF1D10020084D0024E1B210B96D
:100710002A5DFFF7D1FF0134102CF7D10130C0B2B0
:100720000328F2D170BD00BF00000020100000209F
:10073000134B1A6822F0F80242F080021A601A681D
:1007400042F480221A601A6842F480321A605A68B1
:1007500042F001025A605A6822F002025A605A6856
:1007600022F440425A605A6822F460525A605A6831
:1007700022F4E0625A605A6822F0F0025A60704730
:10078000001002401F2810D839B1012936D11C4B66
:1007900081405A69114359617047012218498240CA
:1007A0004B6923EA02034B6170473F2812D8203877
:1007B000C0B239B1012921D1114B81409A6911434D
:1007C0009961704701220E4982408B6923EA020336
:1007D0008B6170475F2811D84038C0B239B1012908
:1007E0000CD1074B8140DA691143D961704701226E
:1007F00003498240CB6923EA0203CB61704700BF03
:10080000001002404FF0E0231A6922F480321A618E
:10081000094A1278012A0AD11A6922F001021A61E2
:100820001A6922F002021A6100225A619A61034B8E
:100830001B6803B118477047980000209C000020F7
:100840000022064B01391A601A6842F080021A60D1
:100850001A6842EA00121A6099627047002C01403F
:1008600003281CD8DFE800F0021C31462C4B9A69A3
:1008700042F008029A619A6922F001029A619A692B
:1008800022F002029A619A6942F070029A611A6A31
:1008900022F002021A621A6A42F001021A627047DA
:1008A0001F4B9A6922F440729A619A6942F400627D
:1008B0009A619A6942F4E0429A611A6A22F020022F
:1008C0001A621A6A42F01002E8E7154BDA6922F060
:1008D0000302DA61DA6942F00802DA61DA6942F0A9
:1008E0007002DA611A6A22F400721A621A6A42F419
:1008F0008072D3E70A4BDA6922F44072DA61DA696E
:1009000042F40062DA61DA6942F4E042DA611A6ABA
:1009100022F400521A621A6A42F48052BEE700BF03
:10092000002C014010B50B4C0328A36A11D80133E9
:10093000A3FB012308480021FFF71AFC013880B20D
:10094000E062636C43F400436364236843F0010393
:10095000236010BD002C014000127A0003280CD83F
:10096000064B0C3003EB800041605A6C42F40042AD
:100970005A641A6842F001021A607047002C014064
:10098000024A136923F0010313617047002C0140F0
:10099000044A136823F020031360034B1B6803B160
:1009A0001847704700380140A0000020044A13682F
:1009B00023F020031360034B5B6803B118477047B3
:1009C00000440040A0000020044A136823F02003E4
:1009D0001360034B9B6803B1184770470048004001
:1009E000A0000020002293B2984200D8704740F245
:1009F000E13300BF013B9BB2002BFAD10132F2E799
:100A000010B5FFF795FE01212220FFF7BBFE012163
:100A10002020FFF7B7FE01215120FFF7B3FE01218F
:100A20002B20FFF7AFFE01210020FFF7ABFEFFF701
:100A300059FE04210020FFF703FF0020FFF718FDF7
:100A40000020FFF72DFD002421460934E4B20020E8
:100A5000FFF71DFDB52C4FF47A7028BF0024FFF777
:100A6000C1FFF1E70D488546AFF300800C480D4902
:100A70000D4A002302E0D458C4500433C4188C42F9
:100A8000F9D30A4A0A4C002301E013600432A2425F
:100A9000FBD300F011F8FFF7B3FFFEE70050002092
:100AA0000000002020000020340B0008200000205F
:100AB000AC000020FEE7000070B500260C4D0D4C88
:100AC000641BA410A64209D100F01AF800260A4DB2
:100AD0000A4C641BA410A64205D170BD55F8043B16
:100AE00098470136EEE755F8043B98470136F2E7A0
:100AF0002C0B00082C0B00082C0B0008300B0008F6
:100B0000F8B500BFF8BC08BC9E467047F8B500BFFA
:080B1000F8BC08BC9E467047CA
:0C0B180000080140000C014000100140EA
:080B24007CF6FF7F01000000D8
:040B2C005501000867
:040B30003101000887
:100B340000000E04020202020A0A0A0A0202020267
:100B44000000000101010100000000000101010199
:0400000508000A6580
:00000001FF
